:100000000C9499000C94C1000C94C1000C94C10094
:100010000C94C1000C94C1000C94C1000C94C1005C
:100020000C94C1000C94C1000C94C1000C94C1004C
:100030000C94C1000C94C1000C94C1000C94C1003C
:100040000C9426050C94C1000C9496050C94700534
:100050000C94C1000C94C1000C94C1000C94C1001C
:100060000C94C8050C94C10007634236B79BD8A70F
:100070001A39685618AEBAAB558C1D3CB7CC5763CD
:10008000BD6DEDFD753EF6177231BF000000803F7B
:1000900008000000BE922449123EABAAAA2ABECD97
:1000A000CCCC4C3E00000080BEABAAAAAA3E000009
:1000B0000000BF000000803F000000000008417801
:1000C000D3BB4387D1133D190E3CC3BD4282AD2B38
:1000D0003E68EC8276BED98FE1A93E4C80EFFFBE30
:1000E00001C4FF7F3F000000000000000000250069
:1000F00028002B0004040404040404040202020285
:1001000002020303030303030102040810204080DA
:100110000102040810200102040810200000000859
:1001200000020100000304070000000000000000BE
:10013000F60611241FBECFEFD8E0DEBFCDBF11E021
:10014000A0E0B1E0EEE6FAE202C005900D92A23F17
:10015000B107D9F723E0A2EFB1E001C01D92AD379E
:10016000B207E1F710E0C9E9D0E004C02197FE0131
:100170000E941B15C839D107C9F70E943B070C9490
:1001800035150C9400009091AE029111FCCF91E0D6
:100190009093AE029093AD022FEF2093AC02109299
:1001A000AB02260F2093AA029093A9029091A90274
:1001B000880F892B8093A9028091A802813061F475
:1001C0001092A8028091A9028093BB008091BC008C
:1001D00083FDF8CF85EC01C085EE8093BC00809153
:1001E000AE028130E1F38091AB02861710F460918A
:1001F000AB02A8E8B2E0E8E6F2E080E0861721F082
:100200009D9191938F5FFACF0895309165023132BD
:1002100008F04BC08091AE028111FCCF9091640236
:1002200022E02093AE0221E02093AD022FEF209335
:10023000AC021092AB023093AA02E4E4F2E0A8E828
:10024000B2E020E0321721F041914D932F5FFACFB9
:100250001092A9022091A902990F922B9093A902C2
:100260009091A802913061F41092A8029091A90295
:100270009093BB009091BC0093FDF8CF95EC01C02A
:1002800095EE9093BC009091AE029230E1F3909184
:10029000AC029F3F79F08091AC02803241F08091B6
:1002A000AC02803331F084E005C081E003C082E01D
:1002B00001C083E010924302109265021092420244
:1002C000089590E0FC01E45EFE4F2491FC01E85F9C
:1002D000FE4F3491FC01EC50FF4FE491EE23B1F15D
:1002E000222339F1233091F038F42130A9F0223063
:1002F00001F584B58F7D12C0273091F02830A1F030
:100300002430B9F4809180008F7D03C080918000FB
:100310008F77809380000DC084B58F7784BD09C02E
:100320008091B0008F7703C08091B0008F7D809363
:10033000B000F0E0EE0FFF1FE651FF4FA591B49122
:100340008FB7F894EC91E32BEC938FBF08953FB7F0
:10035000F89480913E0290913F02A0914002B091AA
:10036000410226B5A89B05C02F3F19F00196A11D9B
:10037000B11D3FBFBA2FA92F982F8827820F911D3B
:10038000A11DB11DBC01CD0142E0660F771F881F82
:10039000991F4A95D1F708958F929F92AF92BF927D
:1003A000CF92DF92EF92FF926B017C010E94A70136
:1003B0004B015C01C114D104E104F104F1F00E948D
:1003C000A701DC01CB0188199909AA09BB09883E5C
:1003D0009340A105B10570F321E0C21AD108E108EC
:1003E000F10888EE880E83E0981EA11CB11CC11490
:1003F000D104E104F10419F7DDCFFF90EF90DF9015
:10040000CF90BF90AF909F908F90089508950895DA
:10041000CF92DF92EF92FF920F931F93CF93DF93D0
:100420006C017A018B01C0E0D0E0CE15DF0581F0D0
:10043000D8016D918D01D601ED91FC910190F08173
:10044000E02DC6010995892B11F02196EECF7E0192
:10045000C701DF91CF911F910F91FF90EF90DF9037
:10046000CF900895FC01538D448D252F30E0842FCB
:1004700090E0821B930B541710F0CF9608950197CC
:100480000895FC01918D828D981761F0828DDF01B6
:10049000A80FB11D5D968C91928D9F5F9F73928F77
:1004A00090E008958FEF9FEF0895FC01918D828D6C
:1004B000981731F0828DE80FF11D858D90E0089539
:1004C0008FEF9FEF0895FC01918D228D892F90E091
:1004D000805C9F4F821B91098F73992708958FEA43
:1004E00092E00E94630221E0892B09F420E0822F30
:1004F0000895FC01848DDF01A80FB11DA35ABF4FE1
:100500002C91848D90E001968F739927848FA68912
:10051000B7892C93A089B1898C91837080648C9366
:10052000938D848D981306C00288F389E02D808115
:100530008F7D80830895EF92FF920F931F93CF9347
:10054000DF93EC0181E0888F9B8D8C8D981305C023
:10055000E889F989808185FD26C0F62E0B8D10E093
:100560000F5F1F4F0F731127E02E8C8DE8120CC008
:100570000FB607FCFACFE889F989808185FFF5CFAE
:10058000CE010E947902F1CF8B8DFE01E80FF11DA3
:10059000E35AFF4FF0829FB7F8940B8FEA89FB89EB
:1005A000808180620AC09FB7F894EE89FF896083DA
:1005B000E889F98980818370806480839FBF81E0AE
:1005C00090E0DF91CF911F910F91FF90EF900895F0
:1005D000CF93DF93EC01888D8823C9F0EA89FB89EA
:1005E000808185FD05C0A889B9898C9186FD0FC0E1
:1005F0000FB607FCF5CF808185FFF2CFA889B989B6
:100600008C9185FFEDCFCE010E947902E7CFDF917B
:10061000CF91089580E090E0892B29F00E946F022D
:1006200081110C940000089585ED8093BC008091A9
:10063000BC0084FDFCCF1092AE02089540911202DE
:10064000262F30E0240F311D21323105DCF42091BA
:10065000AE022430C9F4FC0180E090E0861758F423
:10066000309112022191DC01AE50BE4FA30FB11D9B
:100670002C930196F3CF80911202680F60931202BF
:1006800080E0089581E0089582E008950895E09162
:10069000670280916602E81730F4F0E0E859FD4FF8
:1006A000808190E008958FEF9FEF08959091670209
:1006B00080916602981750F4E92FF0E0E859FD4F59
:1006C000208130E09F5F9093670202C02FEF3FEFE1
:1006D000C90108958091660290E020916702821B13
:1006E00091090895CF92DF92EF92FF920F931F939B
:1006F000CF93DF937C01CB018A0120914202222318
:1007000089F0EB016B01C40ED51ECC15DD0569F037
:100710006991D701ED91FC910190F081E02DC70125
:100720000995F3CF642F0E941E03C801DF91CF917A
:100730001F910F91FF90EF90DF90CF900895CF938E
:10074000DF931F92CDB7DEB7698320914202222347
:10075000D1F020916502203240F021E030E0FC0130
:100760003383228380E090E015C080914302E82F1C
:10077000F0E0EC5BFD4F998190838F5F80934302A3
:100780008093650205C061E0CE0101960E941E03C0
:1007900081E090E00F90DF91CF910895682F8CE475
:1007A00093E00C949F03089580E090E008950097F3
:1007B00069F0FC0101900020E9F73197AF01481B77
:1007C000590BBC018FEA92E00C94080280E090E0A3
:1007D0000895CF93DF930E94D703EC0184E291E068
:1007E0000E94D7038C0F9D1FDF91CF910895813216
:1007F00008F080E2682F86E70E94C300109267022B
:100800008093660208952F923F924F925F926F926B
:100810007F928F929F92AF92BF92CF92DF92EF9290
:10082000FF920F931F93CF93DF93CDB7DEB7A497BB
:100830000FB6F894DEBF0FBECDBF4B015C01F42EA6
:100840009B01AC010E94BA11882319F087E291E064
:1008500027C024013501E89477F82FEF3FEF4FE7E9
:100860005FE7C301B2010E94BA1181110DC02FEFE1
:100870003FEF4FE75FE7C301B2010E94A00F1816D8
:100880001CF48BE291E00CC02FEF3FEF4FE75FE4E9
:10089000C501B4010E94F81018162CF48FE291E003
:1008A0000E94D703B8C02FEF3FEF4FE75FECC501C1
:1008B000B4010E94A00F87FDF1CF20E030E0A90134
:1008C000C501B4010E94A00F87FF0BC06DE28FEA43
:1008D00092E00E949B023C01B7FAB094B7F8B09442
:1008E00002C0612C712C10E060E070E080E09FE3BA
:1008F000F11641F020E030E040E251E40E94A50F03
:100900001F5FF6CFA50194010E94340F4B015C01DB
:100910000E9417106AA3C72ED82EE92E19A2262FDF
:10092000372F482F592F8E010F5D1F4F0BA31CA38C
:100930009AE0292E312C412C512CCA01B901A20177
:1009400091010E940413605DF80162938F012115EB
:1009500031054105510589F7CF010E94D703830175
:10096000080F191FFF2009F455C06AA17C2D8D2D99
:100970009E2D0E9446109B01AC01C501B4010E944E
:10098000330F4B015C016EE28FEA92E00E949B0202
:10099000080F191F8AE0282E312C412C512C20E001
:1009A00030E040E251E4C501B4010E94FD104B016A
:1009B0005C010E9417109B0140E050E019A2CBA0FF
:1009C000DCA0762E3AA3642EE52ECA01B901A2015D
:1009D00091010E940413605DF60162936F0121157D
:1009E00031054105510589F7CF010E94D703080F52
:1009F000191F672D7AA1862D9E2D0E9446109B01FE
:100A0000AC01C501B4010E94330F4B015C01FA94A3
:100A1000F110C5CFC801A4960FB6F894DEBF0FBE83
:100A2000CDBFDF91CF911F910F91FF90EF90DF909D
:100A3000CF90BF90AF909F908F907F906F905F907E
:100A40004F903F902F9008950E9430151F920F9263
:100A50000FB60F9211242F933F938F939F93AF93D1
:100A6000BF9380913A0290913B02A0913C02B091D9
:100A70003D023091390223E0230F2D3720F40196F7
:100A8000A11DB11D05C026E8230F0296A11DB11DB1
:100A90002093390280933A0290933B02A0933C0248
:100AA000B0933D0280913E0290913F02A09140029E
:100AB000B09141020196A11DB11D80933E02909319
:100AC0003F02A0934002B0934102BF91AF919F912A
:100AD0008F913F912F910F900FBE0F901F901895FF
:100AE0001F920F920FB60F9211242F933F934F93A3
:100AF0005F936F937F938F939F93AF93BF93EF9386
:100B0000FF938FEA92E00E947902FF91EF91BF91EB
:100B1000AF919F918F917F916F915F914F913F9195
:100B20002F910F900FBE0F901F9018951F920F924C
:100B30000FB60F9211242F938F939F93EF93FF93F0
:100B4000E091BF02F091C0028081E091C502F09176
:100B5000C60282FD12C090818091C8028F5F8F73A0
:100B60002091C902821751F0E091C802F0E0E155EE
:100B7000FD4F958F8093C80201C08081FF91EF9156
:100B80009F918F912F910F900FBE0F901F901895EE
:100B90001F920F920FB60F9211242F933F934F93F2
:100BA0005F936F937F938F939F93AF93BF93EF93D5
:100BB000FF938091B900887F803609F49CC068F566
:100BC000883209F45BC090F4803109F454C038F4E1
:100BD000882309F4F6C0883009F44DC0F6C0883186
:100BE00009F44CC0803209F45DC0EFC0803409F4D0
:100BF00068C048F4803309F455C0883309F0E5C073
:100C00008093AC02D8C0803509F44FC0883509F410
:100C10005DC0883409F0D9C0D6C0883909F4C7C08E
:100C2000A8F4883709F467C038F4883609F463C03B
:100C3000803709F460C0C9C0883809F4B8C0803969
:100C400009F45FC0803809F0C0C05BC0803B09F484
:100C500086C038F4803A09F466C0883A09F47FC047
:100C6000B4C0803C09F4A7C0883C09F4A4C0883B08
:100C700009F48AC0AAC08091A90210C09091AB0269
:100C80008091AA02981770F5E091AB0281E08E0F77
:100C90008093AB02F0E0E857FD4F80818093BB006A
:100CA00085EC86C08093AC028EC0E091AB0281E0FF
:100CB0008E0F8093AB028091BB00F0E0E857FD4FB0
:100CC00080839091AB028091AA026EC0E091AB024A
:100CD00081E08E0F8093AB028091BB00F0E0E8577B
:100CE000FD4F80838091AD0281116DC081E08093C2
:100CF000A80284EA61C083E08093AE0210923402BD
:100D0000CFCF80913402803208F051C0E09134029C
:100D100081E08E0F809334028091BB00F0E0EC5EA6
:100D2000FD4F8083BDCF85EC8093BC001092AE0256
:100D300080913402803230F4E0913402F0E0EC5ED5
:100D4000FD4F10826091340270E0E0913502F09125
:100D5000360284E192E009951092340236C084E0B4
:100D60008093AE021092130210921202E0913702A9
:100D7000F0913802099580911202811105C081E03D
:100D8000809312021092F201E091130281E08E0F23
:100D900080931302F0E0EE50FE4F80818093BB0001
:100DA0009091130280911202981708F479CF85E888
:100DB0008093BC000AC085EC8093BC001092AE0208
:100DC00004C01092AC020E941403FF91EF91BF91F6
:100DD000AF919F918F917F916F915F914F913F91D3
:100DE0002F910F900FBE0F901F901895EFEAF2E031
:100DF0001382128288EE93E0A0E0B0E084839583B2
:100E0000A683B78324E031E03183208325EC30E0F2
:100E10003587248724EC30E03787268720EC30E0C4
:100E2000318B208B21EC30E0338B228B22EC30E0B5
:100E3000358B248B26EC30E0378B268B118E128E6F
:100E4000138E148EECE4F3E0138212828483958374
:100E5000A683B78386E191E09183808380E090EA66
:100E6000A0E8B4E48093790390937A03A0937B0382
:100E7000B0937C030895CF93DF93CDB7DEB76F9720
:100E80000FB6F894DEBF0FBECDBF789484B58260F4
:100E900084BD84B5816084BD85B5826085BD85B51E
:100EA000816085BD80916E00816080936E0010929C
:100EB0008100809181008260809381008091810017
:100EC00081608093810080918000816080938000A8
:100ED0008091B10084608093B1008091B000816006
:100EE0008093B00080917A00846080937A00809132
:100EF0007A00826080937A0080917A00816080938A
:100F00007A0080917A00806880937A001092C10004
:100F1000E091BF02F091C00282E08083E091BB02C9
:100F2000F091BC021082E091BD02F091BE028FEC04
:100F300080831092C702E091C302F091C40286E060
:100F40008083E091C102F091C20280818061808340
:100F5000E091C102F091C202808188608083E091BB
:100F6000C102F091C202808180688083E091C10259
:100F7000F091C20280818F7D808383E391E00E94A3
:100F8000E9031092670210926602109243021092D7
:100F900065021092AE0281E08093AD021092A80229
:100FA00082E10E94610183E10E9461018091B900A8
:100FB0008E7F8093B9008091B9008D7F8093B900B6
:100FC00088E48093B80085E48093BC0086E092E0DA
:100FD000909338028093370287E092E09093360234
:100FE00080933502FF24F39486E7E82EF0924202C4
:100FF000E092640210924302109265028EE190E04A
:101000000E94CE030E9405016AE070E080E090E05B
:101010000E94CC0118E5A12E13E0B12E00EAC02EEB
:10102000D12CF0924202E09264021092430210929C
:101030006502C6010E94CE030E94050162E086E7B8
:101040000E94C30010926702809366028CE493E0D2
:101050000E945603982E8CE493E00E9456039A82D5
:10106000198249805A8084299529D5018D939D93B1
:101070005D01B2E0CB0ED11CEEEACE16D10489F6AA
:101080008091580390915903A92FA295AF709F703A
:10109000909359038093580310926703109266034C
:1010A00040E050E020E030E0CA0195958795880F38
:1010B000991FFC01E85AFC4F40FF04C0808128279B
:1010C00088E008C0018110E020273127F9CF9B017B
:1010D000815049F0B901660F771F37FFF8CF9B01A8
:1010E000F0E33F27F5CF4F5F5F4F40315105E1F609
:1010F000832F82958F70A817B9F085E991E00E943F
:10110000E90382EA91E00E94E90383EC91E00E9406
:10111000E9038DEE91E00E94E90368E873E180E065
:1011200090E00E94CC0162CF1092780380E090E4BE
:10113000A9E7B4E48093790390937A03A0937B03A7
:10114000B0937C03442443944092420216E7512E0C
:101150005092640210924302109265028AE490E079
:101160000E94CE030E94050164E170E080E090E0FF
:101170000E94CC01409242021092430210926502FA
:1011800080E090E00E94CE030E94050183E090E0A1
:101190000E94F703109268031092690310926A0389
:1011A00010926B038CE493E00E9456036C01990F3C
:1011B000EE08FF08C0926803D0926903E0926A03C8
:1011C000F0926B038CE493E00E945603FE2CED2C0E
:1011D000DC2CCC24092E000CAA0BBB0BC82AD92A64
:1011E000EA2AFB2AC0926803D0926903E0926A035C
:1011F000F0926B038CE493E00E945603FE2CED2CDE
:10120000DC2CCC24AC01990F660B770BC42AD52AB1
:10121000E62AF72AC0926803D0926903E0926A0333
:10122000F0926B03409242021092430210926502C8
:101230008AE590E00E94CE030E94050164E170E01F
:1012400080E090E00E94CC01409242021092430262
:101250001092650280E090E00E94CE030E9405019A
:1012600083E090E00E94F70310926C0310926D03EC
:1012700010926E0310926F038CE493E00E94560369
:101280006C01990FEE08FF08C0926C03D0926D03B9
:10129000E0926E03F0926F038CE493E00E94560399
:1012A000FE2CED2CDC2CCC24092E000CAA0BBB0B45
:1012B000C82AD92AEA2AFB2AC0926C03D0926D036D
:1012C000E0926E03F0926F038CE493E00E94560369
:1012D000FE2CED2CDC2CCC24AC01990F660B770B8B
:1012E000C42AD52AE62AF72AC0926C03D0926D034D
:1012F000E0926E03F0926F0380916203909163031A
:10130000A0E0B0E0BA2FA92F982F88272601370137
:10131000481A590A6A0A7B0A209178032F8BE091B8
:101320005E03F0915F0340915A0350915B035E832B
:101330004D83609168037091690380916A03909175
:101340006B0369837A838B839C83213009F018C1F6
:101350009A0140E050E060E070E080E090E000E161
:101360000E94BA142D833D871A014B018A87998701
:10137000BF0180E090E0A30192010E94A913F22E28
:10138000032F142FB52FF62FE72FD82EE92EA0E02C
:101390000E940F155CF4AFE70E94FA14F22E032F9F
:1013A000142FB52FF62FE72FD82EE92E2F2D302F03
:1013B000412F5B2F6F2F7E2F8D2D9E2D07E00E94DA
:1013C000D31459016A017B018C012D813D85A10156
:1013D000B4018A8599850E94F1142D873E874F8735
:1013E000588B698B7A8B8B8B9C8BE0916003F0918F
:1013F000610380905C0390905D03940140E050E0B5
:1014000060E070E080E090E001E10E94BA142D837A
:1014100039871A014B018B879A87BF0180E090E0E2
:10142000A30192010E94A913F22E032F142FB52FAE
:10143000F62FE72FD82EE92EA0E00E940F155CF4BE
:10144000AFE30E94FA14F22E032F142FB52FF62FBC
:10145000E72FD82EE92E2F2D302F412F5B2F6F2F06
:101460007E2F8D2D9E2D06E00E94D31459016A0116
:101470007B018C012D813985A101B4018B859A8571
:101480000E94F11429873A87342E252E6B877C879A
:101490008D8B9E8B49815A816B817C819A01AB0136
:1014A00060E070E0CB01288F398F4A8F5B8F6C8FA3
:1014B0007D8F8E8F9F8FAD84BE84CF84D888E9883E
:1014C000FA880B891C8960E070E080E090E00E945F
:1014D0005013F22E032F142FB52FF62FE72FD82EEF
:1014E000E92EA0E00E940F1584F421503109404EEE
:1014F0005F4F6F4F7F4F8F4F9F4FF22E032F142F51
:10150000B52FF62FE72FD82EE92E2F2D302F412F74
:101510005B2F6F2F7E2F8D2D9E2D05E10E94D31402
:10152000A984BA84C32CD22CEB84FC840D891E8937
:101530000E940615F22E032F142FB52FF62FE72F3A
:10154000D82EE92EA0E00E940F1584F421503048D7
:101550004F4F5F4F6F4F7F4F8F4F9F4FF22E032F95
:10156000142FB52FF62FE72FD82EE92E2F2D302F41
:10157000412F5B2F6F2F7E2F8D2D9E2D0FE01FC1D2
:10158000BF0180E090E0A30192010E94A913F22E16
:10159000032F142FB52FF62FE72FD82EE92EA0E01A
:1015A0000E940F1584F421503F4F4F4F5F4F6F4FF4
:1015B0007F4F8F4F9F4FF22E032F142FB52FF62FF3
:1015C000E72FD82EE92E2F2D302F412F5B2F6F2F95
:1015D0007E2F8D2D9E2D08E00E94D31419014A0103
:1015E000B62FA72FF82FE92F6D817E81C12CD12C2A
:1015F0009B01A60160E070E080E090E00FE00E94B7
:10160000BA1459016A017B018C019101A4016B2F6D
:101610007A2F8F2F9E2F0E94F1142D873E874F87A0
:10162000588B698B7A8B8B8B9C8BE0916003F0914C
:10163000610380905C0390905D03940140E050E072
:1016400060E070E080E090E000E10E94BA142D8339
:1016500039871A014B018B879A87BF0180E090E0A0
:10166000A30192010E94A913F22E032F142FB52F6C
:10167000F62FE72FD82EE92EA0E00E940F155CF47C
:10168000AFE70E94FA14F22E032F142FB52FF62F76
:10169000E72FD82EE92E2F2D302F412F5B2F6F2FC4
:1016A0007E2F8D2D9E2D07E00E94D31459016A01D3
:1016B0007B018C012D813985A101B4018B859A852F
:1016C0000E94F11429873A87342E252E6B877C8758
:1016D0008D8B9E8B49815A816B817C819A01AB01F4
:1016E00060E070E0CB01288F398F4A8F5B8F6C8F61
:1016F0007D8F8E8F9F8FAD84BE84CF84D888E988FC
:10170000FA880B891C8960E070E080E090E00E941C
:101710005013F22E032F142FB52FF62FE72FD82EAC
:10172000E92EA0E00E940F1584F421503109404EAB
:101730005F4F6F4F7F4F8F4F9F4FF22E032F142F0E
:10174000B52FF62FE72FD82EE92E2F2D302F412F32
:101750005B2F6F2F7E2F8D2D9E2D05E10E94D314C0
:10176000A984BA84C32CD22CEB84FC840D891E89F5
:101770000E940615F22E032F142FB52FF62FE72FF8
:10178000D82EE92EA0E00E940F1584F42150304E8F
:101790004F4F5F4F6F4F7F4F8F4F9F4FF22E032F53
:1017A000142FB52FF62FE72FD82EE92E2F2D302FFF
:1017B000412F5B2F6F2F7E2F8D2D9E2D0DE00E94D0
:1017C000D31420937403309375034093760350939E
:1017D0007703C301B201990F660B762FCB016983A2
:1017E0007A838B839C83609164037091650380E0AE
:1017F00090E0A30192010E94A913F22E032F142F4F
:10180000B52FF62FE72FD82EE92EA0E00E940F1556
:1018100084F42150310940485F4F6F4F7F4F8F4F05
:101820009F4FF22E032F142FB52FF62FE72FD82E10
:10183000E92E2F2D302F412F5B2F6F2F7E2F8D2DD7
:101840009E2D07E10E94D31449015A01D501C4011C
:101850008053984FAF4FBF4F8D839E83AF83B88720
:101860008093700390937103A0937203B0937303FA
:101870009F89913009F080C02D813E814F8158852C
:10188000203D3740410551050CF036C18CE391E015
:101890000E94E903C301B2012BE030E040E050E0D8
:1018A0000E94A91352016301E980FE2C0E2D1E2D0A
:1018B0000E945013F22E032F142FB52FF62FE72F6F
:1018C000D82EE92EA0E00E940F1584F42150310992
:1018D00041095109684F7F4F8F4F9F4FF22E032FC1
:1018E000142FB52FF62FE72FD82EE92E2F2D302FBE
:1018F000412F5B2F6F2F7E2F8D2D9E2D03E20E9497
:10190000D31429833A834B835C8380907003909037
:101910007103A0907203B090730370ED871A77E0A3
:10192000970AA108B108AFE1B0E0A50194010E94B7
:1019300045139B01AC01C501B4010E94F41228E0DB
:1019400030E040E050E00E94261379018A01AFE3C5
:10195000B0E0A50194010E9445139B01AC01C501B3
:10196000B4010E94F41220E230E040E050E00E9416
:10197000261329013A01CAC08D819E81AF81B885A5
:10198000803D9740A105B1050CF0A2C0C301B20192
:1019900023E030E040E050E00E94A91352016301CF
:1019A000E980FE2C0E2D1E2D0E945013F22E032FC7
:1019B000142FB52FF62FE72FD82EE92EA0E00E9486
:1019C0000F1584F421503109410951096E4F7F4FA1
:1019D0008F4F9F4FF22E032F142FB52FF62FE72F87
:1019E000D82EE92E2F2D302F412F5B2F6F2F7E2FDA
:1019F0008D2D9E2D01E20E94D31429833A834B83BF
:101A00005C83A3E0B0E08D809E80AF80B884F0ED71
:101A10008F1AF7E09F0AA108B108A50194010E945E
:101A200045139B01AC01C501B4010E94F4127B0176
:101A30008C0115950795F794E794A5E0B0E0A50112
:101A400094010E9445139B01AC01C501B4010E94A1
:101A5000F4122B013C01A3E07594679457944794CA
:101A6000AA95D1F72D813E814F815885213C69EFA0
:101A700036076FEF460756070CF048C049015A0178
:101A80007CED870E75E0971EA11CB11CA7E0B0E0AD
:101A9000A50194010E9445139B01AC01C501B4014D
:101AA0000E94F412E60EF71E081F191FA5019401EB
:101AB000E2E0220F331F441F551FEA95D1F7C501FD
:101AC000B4010E94F412460E571E681E791E1EC0F5
:101AD000A5019401C501B4010E94F4127B018C019F
:101AE00074E015950795F794E7947A95D1F71982E4
:101AF0001A821B821C8207C019821A821B821C82D6
:101B0000E12CF12C8701412C512C3201D801C70165
:101B1000BB0F880B982FDC018D839E83AF83B88722
:101B200029853A85432D522D6B857C858D899E892B
:101B300057016801ED80FE2C0E2D1E2D0E9406150A
:101B400029873A871A014B018B879C87A301920151
:101B5000550F220B322FA9012D833E834F835887C7
:101B60002D853E854F85588969897A898B899C891D
:101B700052016301ED80FE2C0E2D1E2D0E940615D4
:101B800059016A017B018C0120917803409168031F
:101B90005091690360916A0370916B034D835E837A
:101BA0006F83788740917003509171036091720345
:101BB0007091730349805A806B807C804419550969
:101BC0006609770940937003509371036093720321
:101BD000709373034D815E816F817885213009F0A8
:101BE00047C09A01AB0160E070E0CB01288F398FCC
:101BF0004A8F5B8F6C8F7D8F8E8F9F8F60E070E040
:101C000080E090E00E945013F22E032F142FB52F86
:101C1000F62FE72FD82EE92EA0E00E940F1584F4AE
:101C200021503109404E5F4F6F4F7F4F8F4F9F4F75
:101C3000F22E032F142FB52FF62FE72FD82EE92ED3
:101C40002F2D302F412F5B2F6F2F7E2F8D2D9E2D0F
:101C500005E10E94D314A984BA84610174010B8543
:101C60001C850E940615A12CB12CF2E3CF2E47C093
:101C70009A01AB0160E070E0CB01288F398F4A8F69
:101C80005B8F6C8F7D8F8E8F9F8F60E070E080E028
:101C900090E00E945013F22E032F142FB52FF62F31
:101CA000E72FD82EE92EA0E00E940F1584F42150D2
:101CB0003109404E5F4F6F4F7F4F8F4F9F4FF22E36
:101CC000032F142FB52FF62FE72FD82EE92E2F2D07
:101CD000302F412F5B2F6F2F7E2F8D2D9E2D05E1F5
:101CE0000E94D314A984BA84610174010B851C85F8
:101CF0000E940615A12CE0E4BE2ECC24C394D12C66
:101D0000E12CF12C00E010E00E94E5132093740315
:101D100030937503409376035093770381E491E009
:101D20000E94D703609174037091750380917603CC
:101D3000909177030E94481042E00E9403048CE4D3
:101D400091E00E94E90382E591E00E94D70360914F
:101D500070037091710380917203909173030E94DC
:101D6000481020E030E048EC52E40E94A50F42E029
:101D70000E94030480E691E00E94E90387E691E077
:101D80000E94D7036091740370917503809176036C
:101D9000909177030E94481020E030E048EC52E434
:101DA0000E94FD1020E03AED45EC57E40E94330F0D
:101DB0006B017C012AE038EE4CE151E4609179033B
:101DC00070917A0380917B0390917C030E94FD10B7
:101DD0009B01AC01C701B6010E94A50F42E00E9421
:101DE00003048FE691E00E94E90382E791E00E94FC
:101DF000D70360917403709175038091760390917D
:101E000077030E94481020E030E54DE754E40E943B
:101E1000A50F2FEC39ED42E45EE30E946A119B01AD
:101E2000AC0160E070E080E89FE30E94330F2DE991
:101E300035EF4DE058E40E94FD102FEB3EE04CE9F9
:101E40005EE30E94FD1042E00E9403048DE791E0F2
:101E50000E94E90368EE73E080E090E00E94CC010C
:101E60000E940A036FC95058BB27AA270E944B0F34
:101E70000C94BE100E94B01038F00E94B71020F0F1
:101E800039F49F3F19F426F40C94AD100EF4E0954C
:101E9000E7FB0C94A710E92F0E94CF1058F3BA1754
:101EA000620773078407950720F079F4A6F50C9470
:101EB000F1100EF4E0950B2EBA2FA02D0B01B901F5
:101EC00090010C01CA01A0011124FF27591B99F0B0
:101ED000593F50F4503E68F11A16F040A22F232FBC
:101EE000342F4427585FF3CF469537952795A7950C
:101EF000F0405395C9F77EF41F16BA0B620B730BB3
:101F0000840BBAF09150A1F0FF0FBB1F661F771F23
:101F1000881FC2F70EC0BA0F621F731F841F48F4D8
:101F2000879577956795B795F7959E3F08F0B0CF61
:101F30009395880F08F09927EE0F97958795089548
:101F40000E94831008F481E008950E94B90F0C9458
:101F5000BE100E94B71058F00E94B01040F029F453
:101F60005F3F29F00C94A71051110C94F2100C94BF
:101F7000AD100E94CF1068F39923B1F3552391F36C
:101F8000951B550BBB27AA2762177307840738F0E8
:101F90009F5F5F4F220F331F441FAA1FA9F335D045
:101FA0000E2E3AF0E0E832D091505040E695001CF9
:101FB000CAF72BD0FE2F29D0660F771F881FBB1FB3
:101FC000261737074807AB07B0E809F0BB0B802D91
:101FD000BF01FF2793585F4F3AF09E3F510578F0BD
:101FE0000C94A7100C94F2105F3FE4F3983ED4F3E6
:101FF000869577956795B795F7959F5FC9F7880F91
:10200000911D9695879597F90895E1E0660F771FE2
:10201000881FBB1F621773078407BA0720F0621B73
:10202000730B840BBA0BEE1F88F7E09508950E949E
:10203000D71088F09F5798F0B92F9927B751B0F073
:10204000E1F0660F771F881F991F1AF0BA95C9F73C
:1020500014C0B13091F00E94F110B1E008950C94D9
:10206000F110672F782F8827B85F39F0B93FCCF38C
:10207000869577956795B395D9F73EF490958095B9
:10208000709561957F4F8F4F9F4F0895E89409C0D9
:1020900097FB3EF490958095709561957F4F8F4F9B
:1020A0009F4F9923A9F0F92F96E9BB279395F695B1
:1020B000879577956795B795F111F8CFFAF4BB0F2F
:1020C00011F460FF1BC06F5F7F4F8F4F9F4F16C093
:1020D000882311F096E911C0772321F09EE8872F1D
:1020E000762F05C0662371F096E8862F70E060E0D9
:1020F0002AF09A95660F771F881FDAF7880F969552
:10210000879597F90895990F0008550FAA0BE0E8F5
:10211000FEEF16161706E807F907C0F012161306A9
:10212000E407F50798F0621B730B840B950B39F4E9
:102130000A2661F0232B242B252B21F408950A264F
:1021400009F4A140A6958FEF811D811D089597F98F
:102150009F6780E870E060E008959FEF80EC08954D
:1021600000240A9416161706180609060895002476
:102170000A9412161306140605060895092E0394F0
:10218000000C11F4882352F0BB0F40F4BF2B11F464
:1021900060FF04C06F5F7F4F8F4F9F4F089557FDC3
:1021A0009058440F551F59F05F3F71F04795880FC5
:1021B00097FB991F61F09F3F79F08795089512165C
:1021C00013061406551FF2CF4695F1DF08C0161608
:1021D00017061806991FF1CF8695710561050894B9
:1021E0000895E894BB2766277727CB0197F90895D0
:1021F0000E94831008F48FEF08950E9410110C9430
:10220000BE100E94B01038F00E94B71020F0952345
:1022100011F00C94A7100C94AD1011240C94F21032
:102220000E94CF1070F3959FC1F3950F50E0551F9A
:10223000629FF001729FBB27F00DB11D639FAA271B
:10224000F00DB11DAA1F649F6627B00DA11D661F6A
:10225000829F2227B00DA11D621F739FB00DA11D8B
:10226000621F839FA00D611D221F749F3327A00D45
:10227000611D231F849F600D211D822F762F6A2FE1
:1022800011249F5750409AF0F1F088234AF0EE0F46
:10229000FF1FBB1F661F771F881F91505040A9F773
:1022A0009E3F510580F00C94A7100C94F2105F3FF4
:1022B000E4F3983ED4F3869577956795B795F795AF
:1022C000E7959F5FC1F7FE2B880F911D9695879527
:1022D00097F90895FA01EE0FFF1F30962105310599
:1022E000A1F16115710561F48038BFE39B0749F1E5
:1022F00068949038810561F08038BFEF9B0741F00A
:1023000099234AF5FF3FE1053105210519F1E894CC
:102310000894E795D901AA2329F4AB2FBE2FF85FC3
:10232000D0F310C0FF5F70F4A695E0F7F73950F0D6
:1023300019F0FF3A38F49F779F930DD00F9007FC68
:102340009058089546F00C94AD1060E070E080E87D
:102350009FE308954FE79F775F934F933F932F93AA
:102360000E946A122F913F914F915F910E94FD1040
:102370000C94C7110E948310880B990B089529F4BF
:1023800016F00C94A7100C94F1100C94AD100E9450
:10239000D710A8F39638A0F707F80F92E8942BE32C
:1023A0003AEA48EB5FE70E9413110F920F920F92E7
:1023B0004DB75EB70F920E94B212E8E6F0E00E94BD
:1023C000F9114F915F91EF91FF91E595EE1FFF1F7E
:1023D00049F0FE57E0684427EE0F441FFA95E1F7F5
:1023E0004195550B0E942C120F9007FE0C94201261
:1023F0000895DF93CF931F930F93FF92EF92DF9295
:102400007B018C01689406C0DA2EEF010E94101146
:10241000FE01E894A5912591359145915591A6F33A
:10242000EF010E944B0FFE019701A801DA9469F7B2
:10243000DF90EF90FF900F911F91CF91DF91089562
:102440009B01AC0160E070E080E89FE30C94A50F75
:102450000C94A7100C94E6120E94D710D8F399237D
:10246000C9F3940F511DA3F39150504094F059F0CB
:10247000882332F0660F771F881F91505040C1F7B4
:102480009E3F51052CF7880F911D9695879597F9DA
:1024900008955F3FACF0983E9CF0BB2786957795FA
:1024A0006795B79508F4B1609395C1F7BB0F58F7DE
:1024B00011F460FFE8CF6F5F7F4F8F4F9F4FE3CFE7
:1024C0000C94F21016F00C94E6120C94AD10689473
:1024D0000C94A7100E94D710A8F39923C1F3AEF370
:1024E000DF93CF931F930F93FF92C92FDD2788238C
:1024F0002AF02197660F771F881FDAF720E030E077
:1025000040E85FEB9FE3883920F0803E38F0219669
:102510008F770E94340FE0E9F0E004C00E94340F8E
:10252000EDEBF0E00E94F9118B01BE01EC01FB2EF6
:102530006F5771097595771F880B990B0E9448108A
:1025400028E132E741E35FE30E941011AF2D9801CB
:10255000AE01FF900F911F91CF91DF910E944B0F21
:102560000C94BE10FA01DC01AA0FBB1F9B01AC0149
:10257000BF5728F4222733274427507820C0B7516B
:1025800090F4AB2F0024469537952795011CA39511
:10259000D2F3002071F0220F331F441FB395DAF3FA
:1025A0000ED00C94330F61307105A0E88A07B9464C
:1025B00030F49B01AC016627772788279078309606
:1025C00021F0208331834283538308959F3F31F06C
:1025D000915020F4879577956795B795880F911D51
:1025E0009695879597F90895DB018F939F930E94A5
:1025F0004513BF91AF91A29F800D911DA39F900D98
:10260000B29F900D11240895A1E21A2EAA1BBB1BA4
:10261000FD010DC0AA1FBB1FEE1FFF1FA217B307AE
:10262000E407F50720F0A21BB30BE40BF50B661FC4
:10263000771F881F991F1A9469F760957095809588
:1026400090959B01AC01BD01CF010895052E97FB2C
:102650001EF400940E943D1357FD07D00E940413FE
:1026600007FC03D04EF40C943D13509540953095E3
:1026700021953F4F4F4F5F4F0895909580957095EE
:1026800061957F4F8F4F9F4F08950E942115A59F01
:10269000900DB49F900DA49F800D911D112408955D
:1026A000DF93CF931F930F939A9DF02D219FF00DF1
:1026B0008B9DF00D8A9DE02DF10D039FF00D029F83
:1026C000E00DF11D4E9DE00DF11D5E9DF00D4F9D45
:1026D000F00D7F936F93BF92AF925F934F93D501AD
:1026E0000E9421158B01AC01D7010E942115EB013D
:1026F000E80FF91FD6010E94A0132F913F91D60138
:102700000E942115C60FD71FE81FF91FAF91BF9177
:102710000E94A0132F913F910E942115C60FD71F31
:10272000E81FF91FD6010E942115E60FF71F980137
:10273000BE01CF0111240F911F91CF91DF91089518
:102740000E942115460F571FC81FD91F08F4319644
:10275000089597FB57FF0C94B9139F938F930E9492
:10276000B9136E1B7F0BAF91BF918A0B9B0B089522
:10277000E894DF93CF93FC01DB010E9421157F9346
:102780006F93E9019A01AC01BF93AF933F932F93ED
:10279000DF010E94211526F46C1B7D0B820B930B2D
:1027A0009E01EB01FC010E94A013AF91BF912F91FC
:1027B0003F910E94A013BE01CF01F9012F913F91DB
:1027C000CF91DF910895689401C0E894F92FF12B1F
:1027D00012F00C941714A0E0B0E0E1EFF3E10C94D8
:1027E0008914092E059422F40E947314112392F483
:1027F000F0E80F26FFEFE094F09400951095B09468
:10280000C094D094A194BF0ACF0ADF0AEF0AFF0A4E
:102810000F0B1F0B0E94221407FC0E947314CDB7EC
:10282000DEB7ECE00C94A514689401C0E8948F9294
:102830009F92CF93DF930E942214DF91CF919F90BC
:102840008F90089588249924F401E401B0E49F93C3
:10285000AA279A158B049C04ED05FE05CF05D00729
:10286000A10798F4AD2FDC2FCF2FFE2FE92D982C48
:10287000892E982F872F762F652F542F432F322F95
:102880002227B85031F7BF9127C01B2EBF91BB271D
:10289000220F331F441F551F661F771F881F991F64
:1028A000881C991CEE1FFF1FCC1FDD1FAA1FBB1F1A
:1028B0008A149B04EC05FD05CE05DF05A007B107D2
:1028C00048F08A189B08EC09FD09CE09DF09A00B26
:1028D000B10B21601A94E1F62EF49401AF01BE0110
:1028E000CD01000C08956095709580959095309578
:1028F0004095509521953F4F4F4F5F4F6F4F7F4F02
:102900008F4F9F4F08952F923F924F925F926F92F9
:102910007F928F929F92AF92BF92CF92DF92EF926F
:10292000FF920F931F93CF93DF93CDB7DEB7CA1BF0
:10293000DB0B0FB6F894DEBF0FBECDBF09942A881B
:10294000398848885F846E847D848C849B84AA84C3
:10295000B984C884DF80EE80FD800C811B81AA8150
:10296000B981CE0FD11D0FB6F894DEBF0FBECDBF1B
:10297000ED0108950F93083090F0982F872F762F50
:10298000652F542F432F322F22270850F4CF220FC8
:10299000331F441F551F661F771F881F991F0A95F5
:1029A000B2F70F91089597FB10F8169400080F9353
:1029B000083098F00850232F342F452F562F672FBB
:1029C000782F892F902DF4CF05949795879577953B
:1029D000679557954795379527950A95AAF70F91CB
:1029E00008952A0D3B1D4C1D5D1D6E1D7F1D801F12
:1029F000911F08950024A7FD00942A0F301D401D4B
:102A0000501D601D701D801D901D08952A193B09E1
:102A10004C095D096E097F09800B910B0895002414
:102A2000A7FD00942A173005400550056005700584
:102A3000800590050895EE0FFF1F0590F491E02D9D
:102A40000994A29FB001B39FC001A39F700D811D87
:102A50001124911DB29F700D811D1124911D0895A7
:0E2A600081E090E0F8940C943515F894FFCFC7
:102A6E00000000009B0208023202E80263024102EB
:102A7E005502000000009F037203D40346036A034D
:102A8E00560347030D0A006E616E00696E66006F95
:102A9E007666005374617274696E6700686572655C
:102AAE000050726573737572653A2000206D626115
:102ABE00720054656D70657261747572653A2000AE
:102ACE002064656720430044657074683A200020D6
:102ADE006D00416C7469747564653A2000206D2038
:102AEE0061626F7665206D65616E20736561206C25
:102AFE006576656C00496E6974206661696C656403
:102B0E002100417265205344412F53434C20636F83
:102B1E006E6E656374656420636F72726563746C48
:102B2E00793F00426C756520526F626F74696373F2
:102B3E002042617233303A2057686974653D5344C0
:102B4E00412C20477265656E3D53434C000A0A0ABC
:022B5E00000075
:00000001FF
