:100000000C9472000C949A000C949A000C949A0030
:100010000C949A000C949A000C949A000C949A00F8
:100020000C949A000C949A000C949A000C949A00E8
:100030000C949A000C949A000C949A000C949A00D8
:100040000C9454040C949A000C94C4040C949E04D4
:100050000C949A000C949A000C949A000C949A00B8
:100060000C949A000C949A00005EBCE2613FDD8320
:10007000C29C7E20A3FD1F41009D23BE46DB65F888
:100080008C11AF32CA57E974000000080002010069
:100090000003040700000000000000000000000052
:1000A000250028002B0000000000240027002A0063
:1000B00000000000230026002900040404040404B6
:1000C0000404020202020202030303030303010207
:1000D00004081020408001020408102001020408D6
:1000E0001020F60411241FBECFEFD8E0DEBFCDBF35
:1000F00011E0A0E0B1E0E6E4F5E102C005900D9268
:10010000A438B107D9F722E0A4E8B1E001C01D92FC
:10011000AF34B207E1F710E0C2E7D0E004C02197A6
:10012000FE010E94960AC137D107C9F70E949905BE
:100130000C94A10A0C94000090E0FC01E857FF4FDA
:100140002491FC01E253FF4F3491FC01E654FF4F30
:10015000E491EE2309F43CC0222339F1233091F0DD
:1001600038F42130A9F0223001F584B58F7D12C01A
:10017000273091F02830A1F02430B9F4809180002C
:100180008F7D03C0809180008F77809380000DC0A9
:1001900084B58F7784BD09C08091B0008F7703C08C
:1001A0008091B0008F7D8093B000F0E0EE0FFF1FD4
:1001B000E456FF4FA591B4919FB7F894611104C024
:1001C0008C913095382302C0EC913E2B3C939FBF1D
:1001D00008953FB7F8948091890190918A01A09188
:1001E0008B01B0918C0126B5A89B05C02F3F19F05B
:1001F0000196A11DB11D3FBFBA2FA92F982F8827A7
:10020000820F911DA11DB11DBC01CD0142E0660F01
:10021000771F881F991F4A95D1F708958F929F9253
:10022000AF92BF92CF92DF92EF92FF926B017C016F
:100230000E94E9004B015C01C114D104E104F10406
:10024000F1F00E94E900DC01CB0188199909AA09A3
:10025000BB09883E9340A105B10570F321E0C21AA5
:10026000D108E108F10888EE880E83E0981EA11CF1
:10027000B11CC114D104E104F10419F7DDCFFF90E2
:10028000EF90DF90CF90BF90AF909F908F900895A8
:10029000CF92DF92EF92FF920F931F93CF93DF9352
:1002A0006C017A018B01C0E0D0E0CE15DF0581F052
:1002B000D8016D918D01D601ED91FC910190F081F5
:1002C000E02DC6010995892B11F02196EECF7E0114
:1002D000C701DF91CF911F910F91FF90EF90DF90B9
:1002E000CF900895089580E090E00895FC01538D2B
:1002F000448D252F30E0842F90E0821B930B541700
:1003000010F0CF96089501970895FC01918D828D8C
:10031000981761F0828DDF01A80FB11D5D968C9159
:10032000928D9F5F9F73928F90E008958FEF9FEF64
:100330000895FC01918D828D981731F0828DE80F20
:10034000F11D858D90E008958FEF9FEF0895FC01DA
:10035000918D228D892F90E0805C9F4F821B9109A7
:100360008F73992708958DE891E00E94A70121E0FD
:10037000892B09F420E0822F0895FC01848DDF0190
:10038000A80FB11DA35ABF4F2C91848D90E0019608
:100390008F739927848FA689B7892C93A089B189F7
:1003A0008C91837080648C93938D848D981306C098
:1003B0000288F389E02D80818F7D80830895EF92FC
:1003C000FF920F931F93CF93DF93EC0181E0888F0F
:1003D0009B8D8C8D981305C0E889F989808185FDF6
:1003E00026C0F62E0B8D10E00F5F1F4F0F731127E5
:1003F000E02E8C8DE8120CC00FB607FCFACFE8890E
:10040000F989808185FFF5CFCE010E94BD01F1CF32
:100410008B8DFE01E80FF11DE35AFF4FF0829FB76D
:10042000F8940B8FEA89FB89808180620AC09FB7AC
:10043000F894EE89FF896083E889F9898081837067
:10044000806480839FBF81E090E0DF91CF911F9116
:100450000F91FF90EF900895CF93DF93EC01888D7B
:100460008823C9F0EA89FB89808185FD05C0A889B8
:10047000B9898C9186FD0FC00FB607FCF5CF80813E
:1004800085FFF2CFA889B9898C9185FFEDCFCE0188
:100490000E94BD01E7CFDF91CF91089580E090E009
:1004A000892B29F00E94B30181110C94000008955A
:1004B000DC0180E0615098F02D91982F9227E92F70
:1004C000EF70F0E0E859FF4F249192959F70E92F6B
:1004D000F0E0E858FF4FE491822F8E27EBCF08958C
:1004E000FC0190810180F281E02DF8948181892BBB
:1004F00081832281892F809528232283A7E0B0E081
:100500001197F1F7218182238183A3E2B0E0119753
:10051000F1F780817894EFECF0E03197F1F79823D0
:1005200081E009F480E00895FC0190810180F2816E
:10053000E02D892F809560FF12C0F89422818223DC
:1005400082838181892B8183A3E2B0E01197F1F747
:100550008281982B9283789487ED90E011C0F89473
:100560002281822382838181892B8183AFEFB0E056
:100570001197F1F78281982B928378948FE090E025
:100580000197F1F70895DF92EF92FF920F931F9377
:10059000CF93DF93EC01D62EE42E08E010E0FF2489
:1005A000F39461E08D2D8F2109F460E0CE010E946B
:1005B0009402FF0C01501109A1F7E11010C0F8944A
:1005C000E981FA8191818881809589238183E981FC
:1005D000FA81928188818095892382837894DF9142
:1005E000CF911F910F91FF90EF90DF900895EF92C0
:1005F000FF920F931F93CF93DF938C017B0140E019
:1006000065E50E94C302E70188E0E80EF11C6991EC
:1006100040E0C8010E94C302CE15DF05C1F7DF919B
:10062000CF911F910F91FF90EF900895DC012C91D5
:100630001196ED91FC911297F8948181922F9095EB
:100640008923818378948DE743E050E0815021F144
:10065000DA011197F1F730813223C1F3F8948281E6
:10066000892382838181822B81837894ABE7B7E0F1
:100670001197F1F7F89481819823918383E191E0B8
:100680000197F1F78081282381E009F080E07894D8
:10069000E3E6F6E03197F1F708956F927F928F923B
:1006A0009F92AF92BF92CF92DF92EF92FF920F9301
:1006B0001F93CF93DF938C01EB01809133029091D4
:1006C00034020E941603882309F447C0B8018091C0
:1006D0003302909134020E94F70240E06EEB809169
:1006E0003302909134020E94C3028E016E0189E0B0
:1006F000C80ED11C7E01A0903302B090340288E075
:10070000882E912C712C66246394C5010E9470027E
:1007100081117628660CE1E08E1A9108B1F7F70195
:1007200071927F01CE16DF0631F7809133029091EE
:1007300034020E941603813081F4F80181918F0107
:10074000811104C0EC15FD05C1F707C068E0CE01BA
:100750000E94580291E02885281390E0892FDF91AC
:10076000CF911F910F91FF90EF90DF90CF90BF90AE
:10077000AF909F908F907F906F900895BF92CF928F
:10078000DF92EF92FF920F931F93CF93DF93EC01D1
:100790006B018D85811105C0CE010E941603811168
:1007A00005C01B861D861C8680E060C040E060EFAF
:1007B000CE010E94C30201E0E12CB12C11E0CE0178
:1007C0000E947002F82ECE010E94700291E0F91290
:1007D00003C08130B1F434C02E2D30E0F8121BC0BC
:1007E0008B85181738F4FE01E20FF31F83818023F5
:1007F00041F402C0811729F0F12C193058F41C87FC
:1008000009C0FE01EE0DF11D8381802B8383FF243F
:10081000F39409C0B12EFE01E20FF31F9381802FE4
:100820008095892383836F2DCE010E9494021F5FE0
:10083000000F11F4E39401E087E08E1508F0BFCFBC
:10084000113408F4AECFBB86B11002C081E08D87B1
:100850008B81882309F4A5CFDE011396F6012B9630
:100860008D918193CA17DB07D9F781E0DF91CF9192
:100870001F910F91FF90EF90DF90CF90BF90089560
:10088000009769F0FC0101900020E9F73197AF0172
:10089000481B590BBC018DE891E00C94480180E0A5
:1008A00090E008950E949C0A1F920F920FB60F923B
:1008B00011242F933F938F939F93AF93BF93809176
:1008C000850190918601A0918701B09188013091B6
:1008D000840123E0230F2D3720F40196A11DB11DC3
:1008E00005C026E8230F0296A11DB11D20938401A7
:1008F0008093850190938601A0938701B09388012E
:100900008091890190918A01A0918B01B0918C0115
:100910000196A11DB11D8093890190938A01A09336
:100920008B01B0938C01BF91AF919F918F913F91BB
:100930002F910F900FBE0F901F9018951F920F923E
:100940000FB60F9211242F933F934F935F936F93A2
:100950007F938F939F93AF93BF93EF93FF938DE814
:1009600091E00E94BD01FF91EF91BF91AF919F91E6
:100970008F917F916F915F914F913F912F910F9048
:100980000FBE0F901F9018951F920F920FB60F92E7
:1009900011242F938F939F93EF93FF93E0919D01E9
:1009A000F0919E018081E091A301F091A40182FD6C
:1009B00012C090818091A6018F5F8F732091A70153
:1009C000821751F0E091A601F0E0E357FE4F958FBA
:1009D0008093A60101C08081FF91EF919F918F913B
:1009E0002F910F900FBE0F901F901895CF93DF930C
:1009F0001092900110928F0188EE93E0A0E0B0E099
:100A00008093910190939201A0939301B0939401EC
:100A10008AE091E090938E0180938D0185EC90E0C7
:100A200090939A018093990184EC90E090939C01BB
:100A300080939B0180EC90E090939E0180939D01B8
:100A400081EC90E09093A00180939F0182EC90E074
:100A50009093A2018093A10186EC90E09093A40171
:100A60008093A3011092A6011092A7011092A801F1
:100A70001092A901E0EDF0E02491ECEBF0E084911C
:100A80008823C1F090E0880F991FFC01EA55FF4FC1
:100A9000C591D491FC01E456FF4FA591B4919FB745
:100AA000F8948881E22FE0958E2388838C91E82347
:100AB000EC939FBFE0EDF0E0E491E0934102ECEBBA
:100AC000F0E0E491F0E0EE0FFF1FE055FF4F85915D
:100AD0009491909343028093420210924C021092A0
:100AE0004E0210924D02ECE4F2E0129282E0E43405
:100AF000F807D9F71092400210923F0210922B0291
:100B000081E492E090933402809333021092310298
:100B10001092320210922A0289E080932D0281E025
:100B200080932E0280932F0280933002DF91CF9129
:100B30000895CF93DF93CDB7DEB7AA970FB6F89499
:100B4000DEBF0FBECDBF789484B5826084BD84B50E
:100B5000816084BD85B5826085BD85B5816085BDB8
:100B600080916E00816080936E0010928100809170
:100B700081008260809381008091810081608093F8
:100B80008100809180008160809380008091B1001D
:100B900084608093B1008091B00081608093B00048
:100BA00080917A00846080937A0080917A008260DC
:100BB00080937A0080917A00816080937A0080919E
:100BC0007A00806880937A001092C100E0919D01C4
:100BD000F0919E0182E08083E0919901F0919A0169
:100BE0001082E0919B01F0919C018FEC8083109228
:100BF000A501E091A101F091A20186E08083E0913E
:100C00009F01F091A001808180618083E0919F012C
:100C1000F091A001808188608083E0919F01F09134
:100C2000A001808180688083E0919F01F091A00104
:100C300080818F7D808388E191E00E94400483E47D
:100C400091E00E944004E0913302F0913402138657
:100C500015861486DF011B9633961E92EA17FB0752
:100C6000E1F7109231021092320211E0BE016E5D86
:100C70007F4F80913302909134020E94BE038823FB
:100C8000F1F067E0CE0182960E94580299A589137F
:100C9000EDCF809131028F5F809331028AA188323B
:100CA00009F4B8C030F4803109F4B4C08232F1F6EE
:100CB000B1C08B3309F4AEC08234C1F6ABC0EAE0F8
:100CC0008E2E912CA12CB12C86E491E00E94400440
:100CD00080913302909134020E94160340E06CEC44
:100CE00080913302909134020E94C30240912A0203
:100CF00064E480913302909134020E94C302809197
:100D00002E02882309F459C0E0912D0280912F0210
:100D1000882361F180912A02811128C08FB7F8944D
:100D2000C0908501D0908601E0908701F090880105
:100D30008FBF80913302909134020E947002813003
:100D4000E1F12FB7F8948091850190918601A091EF
:100D50008701B09188012FBF8C199D09AE09BF0989
:100D60008E3E9240A105B10520F327C0E950E33043
:100D700040F4F0E0EE0FFF1FE050FF4F80819181C3
:100D800002C08EEE92E06C01990FEE08FF08809190
:100D90002B02882329F060E080912C020E949C00A5
:100DA000C701B6010E940E0180912B02882329F011
:100DB00061E080912C020E949C0082E691E00E94FA
:100DC000400483E491E00E94400487E691E00E94A1
:100DD0004004E0913302F0913402138615861486A4
:100DE000DF011B96CF0103961E928A179B07E1F73E
:100DF000BE016E5D7F4FCF010E94BE03882309F4C0
:100E0000B7C067E0CE0182960E94580299A5891367
:100E1000AFC05AC0809132028F5F809332028091BE
:100E20002A02811126C080913302909134020E94DF
:100E30001603BE016E5D7F4F8091330290913402A4
:100E40000E94F70240E064EB8091330290913402FB
:100E50000E94C30280913302909134020E9470027A
:100E6000082F80913302909134020E9416030023D0
:100E700041F18AA18031E1F0BE016F5F7F4FCE0169
:100E800082960E944D03882379F08D818F3351F033
:100E900020F48F3149F489E00CC08F3539F08F3759
:100EA00039F002C08AE005C080E003C08BE001C0D9
:100EB0008CE090912D02981708F0D8CE80932D02E7
:100EC000D5CE10932A02D5CFBE016F5F7F4FCE01E2
:100ED00082960E944D03882309F411C12A8130E0D3
:100EE000C901982F8827990F990F990F698148E0B8
:100EF000649FB00111249C01262B372B8AA18031DD
:100F0000D9F468856623C1F070E08F81FB01E81B8E
:100F1000F109CF019695982F8827979587950E947C
:100F20004C0A60527109207F53E0220F331F5A95FB
:100F3000E1F7620F731F01C0B9016138F4EE7F075A
:100F4000BCF0072E000C880B990B0E94250920E0AD
:100F500030E040E05CE30E94DA096B017C019B0118
:100F6000AC010E94470A882349F088E791E020C03D
:100F7000C12CD12C8EEFE82E82ECF82E2601370101
:100F8000E89477F82FEF3FEF4FE75FE7C301B20137
:100F90000E94470A81110FC02FEF3FEF4FE75FE735
:100FA000C301B2010E94EF0818162CF48CE791E0FF
:100FB0000E9440049BC02FEF3FEF4FE75FE4C70163
:100FC000B6010E94D50918161CF480E891E0F0CF14
:100FD0002FEF3FEF4FE75FECC701B6010E94EF082C
:100FE00087FDF3CF20E030E0A901C701B6010E94E0
:100FF000EF0887FF09C06DE28DE891E00E94DF01F4
:10100000F7FAF094F7F8F0942AE037ED43EA5BE35F
:10101000C701B6010E9483082B013C010E94F4081D
:101020006B017C010E9423099B01AC01C301B20149
:101030000E9482081B012C0119A28E010F5D1F4F17
:101040000AA7712EC701B601A50194010E94600A8A
:1010500069017A01605DF80162938F01232B242BD3
:10106000252B81F7CF010E9440046EE28DE891E0CC
:101070000E94DF0193E0F92EFA94FF20B9F120E0FD
:1010800030E040E251E4C201B1010E94DA091B01E3
:101090002C010E94F4089B0140E050E019A20AA52F
:1010A000172D662EC32ED42EE52ECA01B901A50137
:1010B00094010E94600A605DF80162938F0121151E
:1010C00031054105510589F7CF010E944004662D85
:1010D0007C2D8D2D9E2D0E9423099B01AC01C20108
:1010E000B1010E9482081B012C01C6CF68EE73E09B
:1010F00080E090E00E940E010E944E02E5CD60E883
:1011000074EE1BCF5058BB27AA270E949A080C9454
:101110009B090E948D0938F00E94940920F039F44F
:101120009F3F19F426F40C948A090EF4E095E7FB2E
:101130000C948409E92F0E94AC0958F3BA1762078E
:1011400073078407950720F079F4A6F50C94CE096F
:101150000EF4E0950B2EBA2FA02D0B01B9019001D2
:101160000C01CA01A0011124FF27591B99F0593F16
:1011700050F4503E68F11A16F040A22F232F342F5E
:101180004427585FF3CF469537952795A795F040AC
:101190005395C9F77EF41F16BA0B620B730B840BC1
:1011A000BAF09150A1F0FF0FBB1F661F771F881F79
:1011B000C2F70EC0BA0F621F731F841F48F48795D1
:1011C00077956795B795F7959E3F08F0B0CF9395C3
:1011D000880F08F09927EE0F9795879508950E943C
:1011E000600908F481E008950E94B40988F09F57CF
:1011F00098F0B92F9927B751B0F0E1F0660F771F3B
:10120000881F991F1AF0BA95C9F714C0B13091F030
:101210000E94CE09B1E008950C94CE09672F782F73
:101220008827B85F39F0B93FCCF3869577956795F5
:10123000B395D9F73EF490958095709561957F4F61
:101240008F4F9F4F0895E89409C097FB3EF4909507
:101250008095709561957F4F8F4F9F4F9923A9F08F
:10126000F92F96E9BB279395F6958795779567951E
:10127000B795F111F8CFFAF4BB0F11F460FF1BC062
:101280006F5F7F4F8F4F9F4F16C0882311F096E9F5
:1012900011C0772321F09EE8872F762F05C06623A3
:1012A00071F096E8862F70E060E02AF09A95660F5C
:1012B000771F881FDAF7880F9695879597F9089515
:1012C000990F0008550FAA0BE0E8FEEF1616170657
:1012D000E807F907C0F012161306E407F50798F0BF
:1012E000621B730B840B950B39F40A2661F0232BD8
:1012F000242B252B21F408950A2609F4A140A69554
:101300008FEF811D811D089597F99F6780E870E038
:1013100060E008959FEF80EC089500240A9416166B
:10132000170618060906089500240A9412161306D3
:10133000140605060895092E0394000C11F4882361
:1013400052F0BB0F40F4BF2B11F460FF04C06F5F7D
:101350007F4F8F4F9F4F089557FD9058440F551F53
:1013600059F05F3F71F04795880F97FB991F61F027
:101370009F3F79F087950895121613061406551F9E
:10138000F2CF4695F1DF08C0161617061806991F0A
:10139000F1CF86957105610508940895E894BB27FF
:1013A00066277727CB0197F908950E94600908F412
:1013B0008FEF08950E94ED090C949B090E948D09FE
:1013C00038F00E94940920F0952311F00C948409C0
:1013D0000C948A0911240C94CF090E94AC0970F373
:1013E000959FC1F3950F50E0551F629FF001729FCA
:1013F000BB27F00DB11D639FAA27F00DB11DAA1FD9
:10140000649F6627B00DA11D661F829F2227B00D25
:10141000A11D621F739FB00DA11D621F839FA00DB0
:10142000611D221F749F3327A00D611D231F849F00
:10143000600D211D822F762F6A2F11249F57504057
:101440009AF0F1F088234AF0EE0FFF1FBB1F661FD2
:10145000771F881F91505040A9F79E3F510580F09B
:101460000C9484090C94CF095F3FE4F3983ED4F3C5
:10147000869577956795B795F795E7959F5FC1F73F
:10148000FE2B880F911D9695879597F908950E94D8
:101490006009880B990B089597FB072E16F40094AA
:1014A00007D077FD09D00E94820A07FC05D03EF4E0
:1014B000909581959F4F0895709561957F4F089500
:1014C000A1E21A2EAA1BBB1BFD010DC0AA1FBB1F48
:1014D000EE1FFF1FA217B307E407F50720F0A21BBA
:1014E000B30BE40BF50B661F771F881F991F1A9427
:1014F00069F760957095809590959B01AC01BD0151
:10150000CF010895AA1BBB1B51E107C0AA1FBB1F37
:10151000A617B70710F0A61BB70B881F991F5A957F
:10152000A9F780959095BC01CD010895EE0FFF1F9E
:101530000590F491E02D099481E090E0F8940C94EA
:06154000A10AF894FFCFA0
:101546005E00BC00770100000000DF014801760163
:101556002C02A7018501990144616C6C61732054CA
:10156600656D706572617475726520494320436FBD
:101576006E74726F6C204C69627261727920446578
:101586006D6F000D0A002052657175657374696E82
:10159600672074656D7065726174757265732E2E41
:1015A6002E00444F4E450054656D7065726174752A
:1015B60072652069733A20006E616E00696E66007E
:0415C6006F766600D6
:00000001FF
