:100000000C9433010C945B010C945B010C945B0128
:100010000C945B010C945B010C945B010C945B01F0
:100020000C945B010C945B010C945B010C945B01E0
:100030000C945B010C945B010C945B010C945B01D0
:100040000C9457060C945B010C94C7060C94A10603
:100050000C945B010C945B010C945B010C945B01B0
:100060000C94F9060C945B01002D2D2D2D2D2D2DBA
:100070002D2D2D2D2D2D2D2D2D2D2D2D2D2D2D2DB0
:100080002D2D2D2D2D2D2D2D2D2D2D2D2D00206C9B
:100090007578005265736F6C7574696F6E3A2020C5
:1000A0002000206C7578004D696E2056616C756576
:1000B0003A2020202000206C7578004D6178205671
:1000C000616C75653A2020202000556E6971756558
:1000D0002049443A2020202000447269766572202D
:1000E0005665723A2020200053656E736F723A2075
:1000F000202020202020002D2D2D2D2D2D2D2D2DAB
:100100002D2D2D2D2D2D2D2D2D2D2D2D2D2D2D2D1F
:100110002D2D2D2D2D2D2D2D2D2D2D00002D2D2D69
:100120002D2D2D2D2D2D2D2D2D2D2D2D2D2D2D2DFF
:100130002D2D2D2D2D2D2D2D2D2D2D2D2D2D2D2DEF
:100140002D00206D730054696D696E673A20202080
:100150002020202000393837367820284D61782932
:1001600000343238782028486967682900323578A9
:1001700020284D656469756D2900317820284C6F01
:100180007729004761696E3A202020202020202016
:1001900020002D2D2D2D2D2D2D2D2D2D2D2D2D2DC9
:1001A0002D2D2D2D2D2D2D2D2D2D2D2D2D2D2D2D7F
:1001B0002D2D2D2D2D2D00466F756E642061205440
:1001C000534C323539312073656E736F720053743E
:1001D000617274696E67204164616672756974202A
:1001E00054534C32353931205465737421004C75A9
:1001F000783A200020200056697369626C653A20C5
:100200000020200046756C6C3A20002020004952E6
:100210003A2000206D73205D20005B20000000006C
:1002200000250028002B0004040404040404040234
:100230000202020202030303030303010204081083
:100240002040800102040810200102040810200050
:100250000000080002010000030407000000000085
:10026000000000006B0C11241FBECFEFD8E0DEBFF2
:10027000CDBF11E0A0E0B1E0E8EAF0E202C00590F5
:100280000D92A237B107D9F722E0A2E7B1E001C091
:100290001D92AA3EB207E1F711E0C3E3D1E004C02A
:1002A0002197FE010E94170FC233D107C9F70E94A0
:1002B000950A0C9452100C940000089508953FB7CD
:1002C000F8948091BA019091BB01A091BC01B091CA
:1002D000BD0126B5A89B05C02F3F19F00196A11DB1
:1002E000B11D3FBFBA2FA92F982F8827820F911DCC
:1002F000A11DB11DBC01CD0142E0660F771F881F13
:10030000991F4A95D1F708958F929F92AF92BF920D
:10031000CF92DF92EF92FF926B017C010E945F010E
:100320004B015C01C114D104E104F104F1F00E941D
:100330005F01DC01CB0188199909AA09BB09883E34
:100340009340A105B10570F321E0C21AD108E1087C
:10035000F10888EE880E83E0981EA11CB11CC11420
:10036000D104E104F10419F7DDCFFF90EF90DF90A5
:10037000CF90BF90AF909F908F900895CF92DF92D3
:10038000EF92FF920F931F93CF93DF936C017A014B
:100390008B01C0E0D0E0CE15DF0581F0D8016D9172
:1003A0008D01D601ED91FC910190F081E02DC60107
:1003B0000995892B11F02196EECF7E01C701DF91BF
:1003C000CF911F910F91FF90EF90DF90CF90089504
:1003D000FC01538D448D252F30E0842F90E0821B4B
:1003E000930B541710F0CF96089501970895FC01D0
:1003F000918D828D981761F0828DDF01A80FB11D5C
:100400005D968C91928D9F5F9F73928F90E008957F
:100410008FEF9FEF0895FC01918D828D981731F039
:10042000828DE80FF11D858D90E008958FEF9FEF8D
:100430000895FC01918D228D892F90E0805C9F4F63
:10044000821B91098F73992708958FE292E00E9491
:10045000190221E0892B09F420E0822F0895FC0184
:10046000848DDF01A80FB11DA35ABF4F2C91848D3D
:1004700090E001968F739927848FA689B7892C9372
:10048000A089B1898C91837080648C93938D848DC5
:10049000981306C00288F389E02D80818F7D8083C8
:1004A0000895EF92FF920F931F93CF93DF93EC0188
:1004B00081E0888F9B8D8C8D981305C0E889F98920
:1004C000808185FD26C0F62E0B8D10E00F5F1F4F3B
:1004D0000F731127E02E8C8DE8120CC00FB607FCAD
:1004E000FACFE889F989808185FFF5CFCE010E9496
:1004F0002F02F1CF8B8DFE01E80FF11DE35AFF4F64
:10050000F0829FB7F8940B8FEA89FB898081806223
:100510000AC09FB7F894EE89FF896083E889F9895A
:1005200080818370806480839FBF81E090E0DF9151
:10053000CF911F910F91FF90EF900895CF93DF938C
:10054000EC01888D8823C9F0EA89FB89808185FDCB
:1005500005C0A889B9898C9186FD0FC00FB607FC2C
:10056000F5CF808185FFF2CFA889B9898C9185FF6D
:10057000EDCFCE010E942F02E7CFDF91CF910895FA
:1005800080E090E0892B29F00E94250281110C94D3
:10059000000008954F925F926F927F928F929F9288
:1005A000AF92BF92CF92DF92EF92FF92CF93DF9301
:1005B000CDB7DEB728970FB6F894DEBF0FBECDBF1C
:1005C0005A01FC0125813681215031092530310540
:1005D00060F4220F331F220F331FF901EA5FFE4F31
:1005E000208131814281538104C020E030E048EC19
:1005F00052E429833A834B835C83FC018781908595
:100600008032910561F08033910581F04097B1F41B
:10061000412C512C38EC632E31E4732E15C0412C43
:10062000512C26ED622E23E4722E0EC0412C90E553
:10063000592E9AE1692E96E4792E06C0412C512C50
:1006400080E8682E8FE3782E80E090E00E94CC0D49
:100650006B017C01B50180E090E00E94CC0D4B0164
:100660005C01A70196010E942B0D9B01AC0160E08B
:1006700070E080E89FE30E94B90C6D837E838F83D6
:100680009887A5019401C701B6010E94B90C9B018E
:10069000AC016D817E818F8198850E94830E6B01F4
:1006A0007C01A301920169817A818B819C810E94E6
:1006B000830E20E030E04CEC53E40E942B0D9B01B4
:1006C000AC01C701B6010E942B0D28960FB6F89415
:1006D000DEBF0FBECDBFDF91CF91FF90EF90DF90D7
:1006E000CF90BF90AF909F908F907F906F905F90D2
:1006F0004F90089585ED8093BC008091BC0084FDEF
:10070000FCCF10920A02089540919201262F30E00A
:10071000240F311D21323105DCF420910A022430EE
:10072000C9F4FC0180E090E0861758F43091920102
:100730002191DC01AE58BE4FA30FB11D2C93019641
:10074000F3CF80919201680F6093920180E0089549
:1007500081E0089582E008950895E091C3018091B9
:10076000C201E81730F4F0E0EC53FE4F808190E0D6
:1007700008958FEF9FEF08959091C3018091C2017A
:10078000981750F4E92FF0E0EC53FE4F208130E051
:100790009F5F9093C30102C02FEF3FEFC9010895FF
:1007A0008091C20190E02091C301821B91090895BC
:1007B000CF92DF92EF92FF920F931F93CF93DF932D
:1007C0007C01CB018A0120910B02222389F0EB01ED
:1007D0006B01C40ED51ECC15DD0569F06991D701FA
:1007E000ED91FC910190F081E02DC7010995F3CFC7
:1007F000642F0E948403C801DF91CF911F910F9154
:10080000FF90EF90DF90CF900895CF93DF931F92EA
:10081000CDB7DEB7698320910B022223D1F020915E
:100820002E02203240F021E030E0FC0133832283AD
:1008300080E090E015C080910C02E82FF0E0E35FCB
:10084000FD4F998190838F5F80930C0280932E02DD
:1008500005C061E0CE0101960E94840381E090E032
:100860000F90DF91CF910895089580E090E0089572
:1008700008950F931F93CF93DF93EC0181E0809352
:100880000B0289E280932D0210920C0210922E022C
:100890008B819C81DC01ED91FC910190F081E02D38
:1008A000099581E00E94AB0962E070E08B819C8138
:1008B0000E94070A8B819C81DC01ED91FC910284EE
:1008C000F385E02D09958C018B819C81DC01ED91F4
:1008D000FC910284F385E02D099520E030E0382F6B
:1008E000C801822B932BDF91CF911F910F91089517
:1008F0001F93CF93DF93EC01142F81E080930B02C1
:1009000089E280932D0210920C0210922E028B81AC
:100910009C81DC01ED91FC910190F081E02D099525
:100920008B819C81DC01ED91FC910190F081E02DA7
:10093000612F099581E0DF91CF911F910C94AB0954
:100940000F931F93CF93DF93EC018CEC92E09C8389
:100950008B831092C3011092C20110920C0210926C
:100960002E0210920A0211E0109309021092E40183
:1009700082E10E944F0A83E10E944F0A8091B900F0
:100980008E7F8093B9008091B9008D7F8093B900EC
:1009900088E48093B80085E48093BC008DE591E005
:1009A0009093C1018093C0018EE591E09093BF01C7
:1009B0008093BE0110930B0289E280932D02109266
:1009C0000C0210922E028B819C81DC01ED91FC9136
:1009D0000190F081E02D62EB099581E00E94AB0966
:1009E00061E070E08B819C810E94070A8B819C8171
:1009F000DC01ED91FC910284F385E02D09958035B1
:100A0000D9F41D871D810E81CE010E9432051D8300
:100A10000E834F81412B61EACE010E947804CE0102
:100A20000E9422056F817885CE010E948305CE0148
:100A30000E94220581E001C080E0DF91CF911F91EB
:100A40000F910895CF93DF93EC018D85811103C041
:100A5000CE010E94A00440E060EACE01DF91CF9178
:100A60000C947804CF93DF93EC018D85811103C042
:100A7000CE010E94A00443E960EACE01DF91CF914C
:100A80000C947804CF92DF92EF92FF92CF93DF9392
:100A9000EC018D85811103C0CE010E94A004CE011E
:100AA0000E943205F12C8F2D90E02D813E81281778
:100AB000390744F068E770E080E090E00E9484012C
:100AC000F394F1CF64EBCE010E9439047C0166EB14
:100AD000CE010E943904A0E0B0E0DC01992788270C
:100AE0006701E12CF12CC82AD92AEA2AFB2ACE0177
:100AF0000E942205C701B601DF91CF91FF90EF90D0
:100B0000DF90CF9008950F931F93CF93DF93EC0165
:100B1000162F072F8D85811103C0CE010E94A004DE
:100B2000CE010E9432051F8308874D81412B61EA67
:100B3000CE010E947804CE01DF91CF911F910F91D9
:100B40000C9422050E943E100F931F93CF93DF93C6
:100B50008C01EB0188E2FB0111928A95E9F74BE0E9
:100B600050E06AE571E0CE010E9443101B8681E0EF
:100B700090E0A0E0B0E08C879D87AE87BF87F8014A
:100B800081859285A385B485888B998BAA8BBB8B35
:100B900085E090E0A0E0B0E08C8B9D8BAE8BBF8BAE
:100BA0001CA21DA21EA21FA280E090EEABEAB7E439
:100BB000888F998FAA8FBB8F1C8E1D8E1E8E1F8EC5
:100BC0008FE692E1A3E8BAE388A399A3AAA3BBA303
:100BD000DF91CF911F910F9108958F929F92AF92C5
:100BE000BF92CF92DF92EF92FF920F931F93CF931A
:100BF000DF938C01EB010E944205C8010E9442056F
:100C00006C01EE24FF24E4E2DE011D92EA95E9F78F
:100C1000E4E28E2E912CA12CB12C88829982AA829A
:100C2000BB82F80181849284A384B4848C829D82E7
:100C3000AE82BF82F5E08F2E912CA12CB12C88863C
:100C40009986AA86BB86EFB7F8948090B6019090FB
:100C5000B701A090B801B090B901EFBF888A998A16
:100C6000AA8ABB8A6F3FFFEF7F0749F04FEFC41698
:100C7000D40629F0A601C8010E94CA0204C060E09F
:100C800070E080E89FEB6C8B7D8B8E8B9F8B81E07F
:100C9000DF91CF911F910F91FF90EF90DF90CF9058
:100CA000BF90AF909F908F9008950C94B50F1F92B6
:100CB0000F920FB60F9211242F933F938F939F9310
:100CC000AF93BF938091B6019091B701A091B80105
:100CD000B091B9013091B50123E0230F2D3720F4F5
:100CE0000196A11DB11D05C026E8230F0296A11D86
:100CF000B11D2093B5018093B6019093B701A093E5
:100D0000B801B093B9018091BA019091BB01A09153
:100D1000BC01B091BD010196A11DB11D8093BA0126
:100D20009093BB01A093BC01B093BD01BF91AF9163
:100D30009F918F913F912F910F900FBE0F901F9019
:100D400018951F920F920FB60F9211242F933F9375
:100D50004F935F936F937F938F939F93AF93BF93C3
:100D6000EF93FF938FE292E00E942F02FF91EF91A9
:100D7000BF91AF919F918F917F916F915F914F91B3
:100D80003F912F910F900FBE0F901F9018951F92BB
:100D90000F920FB60F9211242F938F939F93EF937F
:100DA000FF93E0913F02F09140028081E091450283
:100DB000F091460282FD12C09081809148028F5FBF
:100DC0008F7320914902821751F0E0914802F0E0C0
:100DD000E15DFD4F958F8093480201C08081FF91B6
:100DE000EF919F918F912F910F900FBE0F901F90B9
:100DF00018951F920F920FB60F9211242F933F93C5
:100E00004F935F936F937F938F939F93AF93BF9312
:100E1000EF93FF938091B900887F803609F49CC0DE
:100E200068F5883209F45BC090F4803109F454C04D
:100E300038F4882309F4F6C0883009F44DC0F6C0B0
:100E4000883109F44CC0803209F45DC0EFC08034B1
:100E500009F468C048F4803309F455C0883309F0B8
:100E6000E5C080930802D8C0803509F44FC08835AA
:100E700009F45DC0883409F0D9C0D6C0883909F4B6
:100E8000C7C0A8F4883709F467C038F4883609F475
:100E900063C0803709F460C0C9C0883809F4B8C09D
:100EA000803909F45FC0803809F0C0C05BC0803B66
:100EB00009F486C038F4803A09F466C0883A09F427
:100EC0007FC0B4C0803C09F4A7C0883C09F4A4C02A
:100ED000883B09F48AC0AAC08091E50110C09091B6
:100EE000070280910602981770F5E091070281E0F1
:100EF0008E0F80930702F0E0EA51FE4F80818093CD
:100F0000BB0085EC86C0809308028EC0E09107028A
:100F100081E08E0F809307028091BB00F0E0EA51E0
:100F2000FE4F808390910702809106026EC0E0918F
:100F3000070281E08E0F809307028091BB00F0E0F2
:100F4000EA51FE4F80838091090281116DC081E0DA
:100F50008093E40184EA61C083E080930A021092E6
:100F6000B401CFCF8091B401803208F051C0E0913C
:100F7000B40181E08E0F8093B4018091BB00F0E05A
:100F8000EC56FE4F8083BDCF85EC8093BC00109261
:100F90000A028091B401803230F4E091B401F0E0B3
:100FA000EC56FE4F10826091B40170E0E091BE01FA
:100FB000F091BF0184E991E009951092B40136C027
:100FC00084E080930A021092930110929201E091C2
:100FD000C001F091C101099580919201811105C074
:100FE00081E08093920110927201E091930181E07F
:100FF0008E0F80939301F0E0EE58FE4F8081809336
:10100000BB009091930180919201981708F479CFD9
:1010100085E88093BC000AC085EC8093BC001092E8
:101020000A0204C0109208020E947A03FF91EF9115
:10103000BF91AF919F918F917F916F915F914F91F0
:101040003F912F910F900FBE0F901F90189508950C
:10105000009769F0FC0101900020E9F73197AF019A
:10106000481B590BBC018FE292E00C94BE0180E05A
:1010700090E008950F931F93CF93DF938C01C0E00E
:10108000D0E0F801EC0FFD1F6491662341F08FE280
:1010900092E00E945102892B11F02196F2CFCE01ED
:1010A000DF91CF911F910F910895CF93DF930E940D
:1010B0003A08EC0182E691E00E9428088C0F9D1FFF
:1010C000DF91CF9108958F929F92AF92BF920F932D
:1010D0001F93CF93DF93CDB7DEB7A1970FB6F894E8
:1010E000DEBF0FBECDBF19A2423008F44AE08E0128
:1010F0000F5D1F4F842E912CA12CB12CA5019401C2
:101100000E94F50EE62FB901CA0101501109EA301B
:1011100014F4E05D01C0E95CD801EC93232B242B8F
:10112000252B61F7C8010E942808A1960FB6F894F4
:10113000DEBF0FBECDBFDF91CF911F910F91BF904A
:10114000AF909F908F9008958F929F92AF92BF9291
:10115000CF92DF92EF92FF920F931F93CF93DF9383
:101160006B017C01142F9B01AC010E94F00E8823BF
:1011700019F085E691E027C046015701E894B7F8D9
:101180002FEF3FEF4FE75FE7C501B4010E94F00E7C
:1011900081110DC02FEF3FEF4FE75FE7C501B401AD
:1011A0000E94260D18161CF489E691E00CC02FEF62
:1011B0003FEF4FE75FE4C701B6010E947E0E1816AD
:1011C00084F48DE691E0DF91CF911F910F91FF9014
:1011D000EF90DF90CF90BF90AF909F908F900C9446
:1011E00028082FEF3FEF4FE75FECC701B6010E94E1
:1011F000260D87FDE6CF20E030E0A901C701B6014A
:101200000E94260D87FF0BC06DE28FE292E00E94E4
:101210005102EC01F7FAF094F7F8F09402C0C0E044
:10122000D0E000E060E070E080E09FE3101741F064
:1012300020E030E040E251E40E942B0D0F5FF6CF3A
:10124000A70196010E94BA0C6B017C010E949D0DC2
:101250004B015C014AE00E946308C80FD91F1123AB
:10126000B9F1C501B4010E94CC0D9B01AC01C701CD
:10127000B6010E94B90C6B017C016EE28FE292E034
:101280000E945102C80FD91F20E030E040E251E433
:10129000C701B6010E94830E4B015C010E949D0DA7
:1012A0006B01E12CF12C4AE0C701B6010E946308F2
:1012B000C80FD91FC701B6010E94CC0D9B01AC011C
:1012C000C501B4010E94B90C6B017C011150E1F61B
:1012D000CE01DF91CF911F910F91FF90EF90DF90A2
:1012E000CF90BF90AF909F908F900895CF92DF9254
:1012F000EF92FF92CF93DF936B017C016DE28FE25F
:1013000092E00E945102EC0166277727CB016C190D
:101310007D098E099F094AE00E9463088C0F9D1F7A
:10132000DF91CF91FF90EF90DF90CF900895CF9312
:10133000DF9397FF03C00E94760903C04AE00E9432
:101340006308EC0182E691E00E9428088C0F9D1F43
:10135000DF91CF910895282F30912E02313208F07D
:101360004AC080910A028111FCCF90912D0242E087
:1013700040930A02209309022FEF20930802109253
:10138000070230930602EDE0F2E0A6EEB1E020E0C5
:10139000321721F041914D932F5FFACF1092E50162
:1013A0002091E501990F922B9093E5019091E40132
:1013B000913061F41092E4019091E5019093BB00AB
:1013C0009091BC0093FDF8CF95EC01C095EE909301
:1013D000BC0090910A029230E1F3909108029F3F85
:1013E00079F080910802803241F0809108028033C8
:1013F00031F084E005C081E003C082E001C083E0F9
:1014000010920C0210922E0210920B0208958091FD
:101410000A028111FCCF613208F060E281E0809322
:101420000A02809309029FEF90930802109207022C
:10143000960F909306028093E5018091E501826505
:101440008093E5018091E401813061F41092E40120
:101450008091E5018093BB008091BC0083FDF8CFB3
:1014600085EC01C085EE8093BC0080910A0281303A
:10147000E1F380910702861710F460910702E6EE0F
:10148000F1E0A4ECB1E080E0861721F091919D930A
:101490008F5FFACF1092C3018093C201089590E04C
:1014A000FC01E15BFD4F2491FC01E55CFD4F3491B3
:1014B000FC01E95DFD4FE491EE23B1F1222339F106
:1014C000233091F038F42130A9F0223001F584B5B1
:1014D0008F7D12C0273091F02830A1F02430B9F46C
:1014E000809180008F7D03C0809180008F778093F2
:1014F00080000DC084B58F7784BD09C08091B00095
:101500008F7703C08091B0008F7D8093B000F0E0B2
:10151000EE0FFF1FE35EFD4FA591B4918FB7F894D6
:10152000EC91E32BEC938FBF0895CF93DF93CDB76E
:10153000DEB7A8970FB6F894DEBF0FBECDBF789484
:1015400084B5826084BD84B5816084BD85B58260C8
:1015500085BD85B5816085BD80916E008160809379
:101560006E001092810080918100826080938100E2
:1015700080918100816080938100809180008160F2
:10158000809380008091B10084608093B10080914D
:10159000B00081608093B00080917A008460809375
:1015A0007A0080917A00826080937A0080917A003C
:1015B000816080937A0080917A00806880937A00BD
:1015C0001092C100E0913F02F091400282E08083DE
:1015D000E0913B02F0913C021082E0913D02F091DB
:1015E0003E028FEC808310924702E0914302F0911B
:1015F000440286E08083E0914102F09142028081C2
:1016000080618083E0914102F09142028081886094
:101610008083E0914102F091420280818068808362
:10162000E0914102F091420280818F7D80838EECB7
:1016300091E00E94550888ED92E00E94A00487EB9B
:1016400091E00E945508BE016F5F7F4F88ED92E0E8
:101650000E94A40587EF90E00E94550888EE90E074
:101660000E943A08CE0101960E94280882E691E085
:101670000E94280889ED90E00E943A086D857E85D9
:101680008F8598890E9497098AEC90E00E943A0819
:1016900069897A898B899C890E9497098BEB90E0F4
:1016A0000E943A08698D7A8D8B8D9C8D42E00E9454
:1016B000A40886EB90E00E94550887EA90E00E941B
:1016C0003A086D8D7E8D8F8D98A142E00E94A4080E
:1016D00082EA90E00E94550883E990E00E943A086F
:1016E00069A17AA18BA19CA144E00E94A4088EE884
:1016F00090E00E94550889E690E00E94550888E62F
:1017000090E00E94550864EF71E080E090E00E9454
:10171000840160E170E088ED92E00E948305809191
:10172000E502811104C088ED92E00E94A00488EDDA
:1017300092E00E94320582E090E09093DE02809376
:10174000DD024091DF02426061EA88ED92E00E9492
:10175000780488ED92E00E94220582E991E00E94DF
:10176000550883E891E00E943A088091DF02909149
:10177000E0028031910571F028F4892B91F48AE719
:1017800091E00DC08032910541F0C09751F485E59C
:1017900091E005C08DE691E002C081E691E00E94F3
:1017A000550886E491E00E943A088091DD0290910C
:1017B000DE02019644E6489F9001499F300D1124B6
:1017C000B901032E000C880B990B37FF03C00E9450
:1017D000760903C04AE00E94630882E491E00E9417
:1017E00055088DE191E00E9455088CE191E00E943E
:1017F000550888ED92E00E9442056B017C012701AB
:10180000662477248AE192E00E943A082FB7F89480
:101810006091B6017091B7018091B8019091B901C2
:101820002FBF4AE00E94630883E192E00E943A08D9
:101830008EE092E00E943A084AE0C301B2010E94A1
:1018400063088BE092E00E943A0884E092E00E94F4
:101850003A08C701B601882799274AE00E94630821
:1018600081E092E00E943A0887EF91E00E943A08F6
:10187000B6016419750980E090E04AE00E946308AF
:1018800084EF91E00E943A088EEE91E00E943A08BF
:101890008FEFC816D80659F08FEF4816580639F062
:1018A000A201B60188ED92E00E94CA0204C060E085
:1018B00070E080E89FEB46E00E94A40882E691E099
:1018C0000E94280864EF71E080E090E00E948401AB
:1018D0000E94C0028ECFEFE2F2E01382128288EE05
:1018E00093E0A0E0B0E084839583A683B7832EE1E4
:1018F00031E03183208325EC30E03587248724ECE8
:1019000030E03787268720EC30E0318B208B21ECCC
:1019100030E0338B228B22EC30E0358B248B26ECAD
:1019200030E0378B268B118E128E138E148EECECDA
:10193000F2E01382128284839583A683B78380E3C7
:1019400091E091838083E8EDF2E082E491E091837D
:10195000808315861682158280E190E090878783C8
:101960008FE19AE0A0E0B0E081879287A387B487F7
:1019700008955058BB27AA270E94D10C0C94440EFE
:101980000E94360E38F00E943D0E20F039F49F3F41
:1019900019F426F40C94330E0EF4E095E7FB0C9446
:1019A0002D0EE92F0E94550E58F3BA1762077307E0
:1019B0008407950720F079F4A6F50C94770E0EF4C1
:1019C000E0950B2EBA2FA02D0B01B90190010C014F
:1019D000CA01A0011124FF27591B99F0593F50F467
:1019E000503E68F11A16F040A22F232F342F4427BF
:1019F000585FF3CF469537952795A795F0405395B7
:101A0000C9F77EF41F16BA0B620B730B840BBAF086
:101A10009150A1F0FF0FBB1F661F771F881FC2F7F1
:101A20000EC0BA0F621F731F841F48F48795779505
:101A30006795B795F7959E3F08F0B0CF9395880FBF
:101A400008F09927EE0F9795879508950E94090E43
:101A500008F481E008950E943F0D0C94440E0E940A
:101A60003D0E58F00E94360E40F029F45F3F29F0F9
:101A70000C942D0E51110C94780E0C94330E0E9480
:101A8000550E68F39923B1F3552391F3951B550B2C
:101A9000BB27AA2762177307840738F09F5F5F4F41
:101AA000220F331F441FAA1FA9F335D00E2E3AF080
:101AB000E0E832D091505040E695001CCAF72BD098
:101AC000FE2F29D0660F771F881FBB1F26173707E9
:101AD0004807AB07B0E809F0BB0B802DBF01FF271B
:101AE00093585F4F3AF09E3F510578F00C942D0EBD
:101AF0000C94780E5F3FE4F3983ED4F38695779587
:101B00006795B795F7959F5FC9F7880F911D9695D3
:101B1000879597F90895E1E0660F771F881FBB1F2F
:101B2000621773078407BA0720F0621B730B840BDC
:101B3000BA0BEE1F88F7E09508950E945D0E88F0BD
:101B40009F5798F0B92F9927B751B0F0E1F0660F81
:101B5000771F881F991F1AF0BA95C9F714C0B130C2
:101B600091F00E94770EB1E008950C94770E672FE4
:101B7000782F8827B85F39F0B93FCCF386957795F1
:101B80006795B395D9F73EF49095809570956195DA
:101B90007F4F8F4F9F4F0895E89409C097FB3EF405
:101BA00090958095709561957F4F8F4F9F4F9923AA
:101BB000A9F0F92F96E9BB279395F6958795779528
:101BC0006795B795F111F8CFFAF4BB0F11F460FFE8
:101BD0001BC06F5F7F4F8F4F9F4F16C0882311F040
:101BE00096E911C0772321F09EE8872F762F05C054
:101BF000662371F096E8862F70E060E02AF09A95EF
:101C0000660F771F881FDAF7880F9695879597F9E3
:101C10000895990F0008550FAA0BE0E8FEEF16167D
:101C20001706E807F907C0F012161306E407F507D0
:101C300098F0621B730B840B950B39F40A2661F044
:101C4000232B242B252B21F408950A2609F4A140E7
:101C5000A6958FEF811D811D089597F99F6780E8F4
:101C600070E060E008959FEF80EC089500240A94EE
:101C70001616170618060906089500240A94121667
:101C80001306140605060895092E0394000C11F49A
:101C9000882352F0BB0F40F4BF2B11F460FF04C047
:101CA0006F5F7F4F8F4F9F4F089557FD9058440FA0
:101CB000551F59F05F3F71F04795880F97FB991FAB
:101CC00061F09F3F79F08795089512161306140668
:101CD000551FF2CF4695F1DF08C0161617061806F5
:101CE000991FF1CF86957105610508940895E894D0
:101CF000BB2766277727CB0197F908950E94090E25
:101D000008F48FEF08950E94960E0C94440E0E94E2
:101D1000360E38F00E943D0E20F0952311F00C9401
:101D20002D0E0C94330E11240C94780E0E94550E37
:101D300070F3959FC1F3950F50E0551F629FF0011E
:101D4000729FBB27F00DB11D639FAA27F00DB11D37
:101D5000AA1F649F6627B00DA11D661F829F2227C0
:101D6000B00DA11D621F739FB00DA11D621F839F47
:101D7000A00D611D221F749F3327A00D611D231F1D
:101D8000849F600D211D822F762F6A2F11249F576B
:101D900050409AF0F1F088234AF0EE0FFF1FBB1F6E
:101DA000661F771F881F91505040A9F79E3F51052D
:101DB00080F00C942D0E0C94780E5F3FE4F3983E67
:101DC000D4F3869577956795B795F795E7959F5FD7
:101DD000C1F7FE2B880F911D9695879597F9089569
:101DE0000E94090E880B990B0895A1E21A2EAA1BD6
:101DF000BB1BFD010DC0AA1FBB1FEE1FFF1FA217BB
:101E0000B307E407F50720F0A21BB30BE40BF50BB7
:101E1000661F771F881F991F1A9469F76095709540
:101E2000809590959B01AC01BD01CF010895EE0F07
:101E3000FF1F0590F491E02D09940F931F93CF930A
:101E4000DF938230910510F482E090E0E091E802A7
:101E5000F091E90220E030E0A0E0B0E0309719F125
:101E6000408151810281138148175907C8F08417B6
:101E7000950769F4109731F012960C931297139608
:101E80001C9327C00093E8021093E90222C0211599
:101E9000310519F04217530718F49A01BD01EF01FB
:101EA000DF01F801DBCF21153105F9F0281B390BD3
:101EB0002430310580F48A819B816115710521F000
:101EC000FB019383828304C09093E9028093E8022C
:101ED000FE01329644C0FE01E20FF31F81939193FD
:101EE00022503109398328833AC02091E60230918B
:101EF000E702232B41F4209102013091030130933A
:101F0000E7022093E60220910001309101012115A2
:101F1000310541F42DB73EB74091040150910501C0
:101F2000241B350BE091E602F091E702E217F3077C
:101F3000A0F42E1B3F0B2817390778F0AC014E5F39
:101F40005F4F2417350748F04E0F5F1F5093E7028D
:101F50004093E6028193919302C0E0E0F0E0CF016C
:101F6000DF91CF911F910F910895CF93DF93009749
:101F700009F481C0FC01329713821282A091E80219
:101F8000B091E902109781F420813181820F931F73
:101F90002091E6023091E7022817390751F5F093B6
:101FA000E702E093E60267C0ED0120E030E0CE17E3
:101FB000DF0740F44A815B819E0141155105F1F034
:101FC000EA01F5CFD383C28340815181840F951FED
:101FD000C817D90759F488819981840F951F0296F3
:101FE000918380838A819B8193838283211531052C
:101FF00029F4F093E902E093E8023DC0E901FB8394
:10200000EA8349915991C40FD51FEC17FD0761F47C
:1020100080819181840F951F0296E90199838883BD
:10202000828193819B838A83E0E0F0E012968D9118
:102030009C911397009719F0FD01DC01F7CF8D916A
:102040009C9111979D012E5F3F4F820F931F20910E
:10205000E6023091E7022817390769F4309729F42E
:102060001092E9021092E80202C013821282B09329
:10207000E702A093E602DF91CF91089581E090E01E
:10208000F8940C945210FB01DC014150504048F090
:1020900001900D920020C9F701C01D92415050409F
:0820A000E0F70895F894FFCF6A
:1020A8000000EA0280000000484300009643000058
:1020B800C8430000FA430000164400000000510223
:1020C800BE01E8019E021902F7010B0200000000A0
:1020D8000504D8033504AC03D003BC03AD030000EA
:1020E8000000270855063804ED05A4050000000087
:1020F800000000003804A205A20554534C323539BB
:1021080031000D0A006E616E00696E66006F7666BA
:022118000000C5
:00000001FF
